{
  "contractName": "CryptoGame",
  "abi": [
    {
      "inputs": [],
      "payable": false,
      "stateMutability": "nonpayable",
      "type": "constructor"
    },
    {
      "anonymous": false,
      "inputs": [
        {
          "indexed": true,
          "internalType": "address",
          "name": "owner",
          "type": "address"
        },
        {
          "indexed": true,
          "internalType": "address",
          "name": "approved",
          "type": "address"
        },
        {
          "indexed": true,
          "internalType": "uint256",
          "name": "tokenId",
          "type": "uint256"
        }
      ],
      "name": "Approval",
      "type": "event"
    },
    {
      "anonymous": false,
      "inputs": [
        {
          "indexed": true,
          "internalType": "address",
          "name": "owner",
          "type": "address"
        },
        {
          "indexed": true,
          "internalType": "address",
          "name": "operator",
          "type": "address"
        },
        {
          "indexed": false,
          "internalType": "bool",
          "name": "approved",
          "type": "bool"
        }
      ],
      "name": "ApprovalForAll",
      "type": "event"
    },
    {
      "anonymous": false,
      "inputs": [
        {
          "indexed": true,
          "internalType": "address",
          "name": "from",
          "type": "address"
        },
        {
          "indexed": true,
          "internalType": "address",
          "name": "to",
          "type": "address"
        },
        {
          "indexed": true,
          "internalType": "uint256",
          "name": "tokenId",
          "type": "uint256"
        }
      ],
      "name": "Transfer",
      "type": "event"
    },
    {
      "constant": false,
      "inputs": [
        {
          "internalType": "address",
          "name": "to",
          "type": "address"
        },
        {
          "internalType": "uint256",
          "name": "tokenId",
          "type": "uint256"
        }
      ],
      "name": "approve",
      "outputs": [],
      "payable": false,
      "stateMutability": "nonpayable",
      "type": "function"
    },
    {
      "constant": true,
      "inputs": [
        {
          "internalType": "address",
          "name": "owner",
          "type": "address"
        }
      ],
      "name": "balanceOf",
      "outputs": [
        {
          "internalType": "uint256",
          "name": "",
          "type": "uint256"
        }
      ],
      "payable": false,
      "stateMutability": "view",
      "type": "function"
    },
    {
      "constant": true,
      "inputs": [
        {
          "internalType": "uint256",
          "name": "tokenId",
          "type": "uint256"
        }
      ],
      "name": "getApproved",
      "outputs": [
        {
          "internalType": "address",
          "name": "",
          "type": "address"
        }
      ],
      "payable": false,
      "stateMutability": "view",
      "type": "function"
    },
    {
      "constant": true,
      "inputs": [
        {
          "internalType": "uint256",
          "name": "",
          "type": "uint256"
        }
      ],
      "name": "gladiatorToOwner",
      "outputs": [
        {
          "internalType": "address",
          "name": "",
          "type": "address"
        }
      ],
      "payable": false,
      "stateMutability": "view",
      "type": "function"
    },
    {
      "constant": true,
      "inputs": [
        {
          "internalType": "uint256",
          "name": "",
          "type": "uint256"
        }
      ],
      "name": "gladiators",
      "outputs": [
        {
          "internalType": "uint256",
          "name": "level",
          "type": "uint256"
        },
        {
          "internalType": "string",
          "name": "name",
          "type": "string"
        },
        {
          "internalType": "uint256",
          "name": "hp",
          "type": "uint256"
        },
        {
          "internalType": "uint256",
          "name": "stamina",
          "type": "uint256"
        },
        {
          "internalType": "uint256",
          "name": "att",
          "type": "uint256"
        },
        {
          "internalType": "uint256",
          "name": "def",
          "type": "uint256"
        }
      ],
      "payable": false,
      "stateMutability": "view",
      "type": "function"
    },
    {
      "constant": true,
      "inputs": [
        {
          "internalType": "address",
          "name": "owner",
          "type": "address"
        },
        {
          "internalType": "address",
          "name": "operator",
          "type": "address"
        }
      ],
      "name": "isApprovedForAll",
      "outputs": [
        {
          "internalType": "bool",
          "name": "",
          "type": "bool"
        }
      ],
      "payable": false,
      "stateMutability": "view",
      "type": "function"
    },
    {
      "constant": true,
      "inputs": [],
      "name": "money",
      "outputs": [
        {
          "internalType": "contract GoldCoinToken",
          "name": "",
          "type": "address"
        }
      ],
      "payable": false,
      "stateMutability": "view",
      "type": "function"
    },
    {
      "constant": true,
      "inputs": [],
      "name": "numGladiators",
      "outputs": [
        {
          "internalType": "uint256",
          "name": "",
          "type": "uint256"
        }
      ],
      "payable": false,
      "stateMutability": "view",
      "type": "function"
    },
    {
      "constant": true,
      "inputs": [],
      "name": "owner",
      "outputs": [
        {
          "internalType": "address",
          "name": "",
          "type": "address"
        }
      ],
      "payable": false,
      "stateMutability": "view",
      "type": "function"
    },
    {
      "constant": true,
      "inputs": [
        {
          "internalType": "uint256",
          "name": "tokenId",
          "type": "uint256"
        }
      ],
      "name": "ownerOf",
      "outputs": [
        {
          "internalType": "address",
          "name": "",
          "type": "address"
        }
      ],
      "payable": false,
      "stateMutability": "view",
      "type": "function"
    },
    {
      "constant": true,
      "inputs": [
        {
          "internalType": "address",
          "name": "",
          "type": "address"
        }
      ],
      "name": "ownerToGladiator",
      "outputs": [
        {
          "internalType": "uint256",
          "name": "",
          "type": "uint256"
        }
      ],
      "payable": false,
      "stateMutability": "view",
      "type": "function"
    },
    {
      "constant": true,
      "inputs": [
        {
          "internalType": "uint256",
          "name": "a",
          "type": "uint256"
        },
        {
          "internalType": "uint256",
          "name": "b",
          "type": "uint256"
        }
      ],
      "name": "safeAdd",
      "outputs": [
        {
          "internalType": "uint256",
          "name": "c",
          "type": "uint256"
        }
      ],
      "payable": false,
      "stateMutability": "pure",
      "type": "function"
    },
    {
      "constant": true,
      "inputs": [
        {
          "internalType": "uint256",
          "name": "a",
          "type": "uint256"
        },
        {
          "internalType": "uint256",
          "name": "b",
          "type": "uint256"
        }
      ],
      "name": "safeDiv",
      "outputs": [
        {
          "internalType": "uint256",
          "name": "c",
          "type": "uint256"
        }
      ],
      "payable": false,
      "stateMutability": "pure",
      "type": "function"
    },
    {
      "constant": true,
      "inputs": [
        {
          "internalType": "uint256",
          "name": "a",
          "type": "uint256"
        },
        {
          "internalType": "uint256",
          "name": "b",
          "type": "uint256"
        }
      ],
      "name": "safeMul",
      "outputs": [
        {
          "internalType": "uint256",
          "name": "c",
          "type": "uint256"
        }
      ],
      "payable": false,
      "stateMutability": "pure",
      "type": "function"
    },
    {
      "constant": true,
      "inputs": [
        {
          "internalType": "uint256",
          "name": "a",
          "type": "uint256"
        },
        {
          "internalType": "uint256",
          "name": "b",
          "type": "uint256"
        }
      ],
      "name": "safeSub",
      "outputs": [
        {
          "internalType": "uint256",
          "name": "c",
          "type": "uint256"
        }
      ],
      "payable": false,
      "stateMutability": "pure",
      "type": "function"
    },
    {
      "constant": false,
      "inputs": [
        {
          "internalType": "address",
          "name": "from",
          "type": "address"
        },
        {
          "internalType": "address",
          "name": "to",
          "type": "address"
        },
        {
          "internalType": "uint256",
          "name": "tokenId",
          "type": "uint256"
        }
      ],
      "name": "safeTransferFrom",
      "outputs": [],
      "payable": false,
      "stateMutability": "nonpayable",
      "type": "function"
    },
    {
      "constant": false,
      "inputs": [
        {
          "internalType": "address",
          "name": "from",
          "type": "address"
        },
        {
          "internalType": "address",
          "name": "to",
          "type": "address"
        },
        {
          "internalType": "uint256",
          "name": "tokenId",
          "type": "uint256"
        },
        {
          "internalType": "bytes",
          "name": "_data",
          "type": "bytes"
        }
      ],
      "name": "safeTransferFrom",
      "outputs": [],
      "payable": false,
      "stateMutability": "nonpayable",
      "type": "function"
    },
    {
      "constant": false,
      "inputs": [
        {
          "internalType": "address",
          "name": "to",
          "type": "address"
        },
        {
          "internalType": "bool",
          "name": "approved",
          "type": "bool"
        }
      ],
      "name": "setApprovalForAll",
      "outputs": [],
      "payable": false,
      "stateMutability": "nonpayable",
      "type": "function"
    },
    {
      "constant": true,
      "inputs": [
        {
          "internalType": "bytes4",
          "name": "interfaceId",
          "type": "bytes4"
        }
      ],
      "name": "supportsInterface",
      "outputs": [
        {
          "internalType": "bool",
          "name": "",
          "type": "bool"
        }
      ],
      "payable": false,
      "stateMutability": "view",
      "type": "function"
    },
    {
      "constant": false,
      "inputs": [
        {
          "internalType": "address",
          "name": "from",
          "type": "address"
        },
        {
          "internalType": "address",
          "name": "to",
          "type": "address"
        },
        {
          "internalType": "uint256",
          "name": "tokenId",
          "type": "uint256"
        }
      ],
      "name": "transferFrom",
      "outputs": [],
      "payable": false,
      "stateMutability": "nonpayable",
      "type": "function"
    },
    {
      "constant": false,
      "inputs": [],
      "name": "setWallet",
      "outputs": [],
      "payable": false,
      "stateMutability": "nonpayable",
      "type": "function"
    },
    {
      "constant": false,
      "inputs": [
        {
          "internalType": "address",
          "name": "_owner",
          "type": "address"
        },
        {
          "internalType": "string",
          "name": "_name",
          "type": "string"
        }
      ],
      "name": "recruiteGladiator",
      "outputs": [],
      "payable": false,
      "stateMutability": "nonpayable",
      "type": "function"
    },
    {
      "constant": true,
      "inputs": [
        {
          "internalType": "address",
          "name": "_owner",
          "type": "address"
        }
      ],
      "name": "getGladiatorsByOwner",
      "outputs": [
        {
          "internalType": "uint256[]",
          "name": "",
          "type": "uint256[]"
        }
      ],
      "payable": false,
      "stateMutability": "view",
      "type": "function"
    }
  ],
  "bytecode": "0x6080604052600060055560006006556040516200001c9062000748565b604051809103906000f08015801562000039573d6000803e3d6000fd5b50600960006101000a81548173ffffffffffffffffffffffffffffffffffffffff021916908373ffffffffffffffffffffffffffffffffffffffff1602179055503480156200008757600080fd5b50620000a06301ffc9a760e01b6200016860201b60201c565b620000b86380ac58cd60e01b6200016860201b60201c565b33600760006101000a81548173ffffffffffffffffffffffffffffffffffffffff021916908373ffffffffffffffffffffffffffffffffffffffff16021790555062000162600760009054906101000a900473ffffffffffffffffffffffffffffffffffffffff166040518060400160405280600481526020017f4976616e000000000000000000000000000000000000000000000000000000008152506200027160201b60201c565b62000805565b63ffffffff60e01b817bffffffffffffffffffffffffffffffffffffffffffffffffffffffff1916141562000205576040517f08c379a000000000000000000000000000000000000000000000000000000000815260040180806020018281038252601c8152602001807f4552433136353a20696e76616c696420696e746572666163652069640000000081525060200191505060405180910390fd5b6001600080837bffffffffffffffffffffffffffffffffffffffffffffffffffffffff19167bffffffffffffffffffffffffffffffffffffffffffffffffffffffff1916815260200190815260200160002060006101000a81548160ff02191690831515021790555050565b60006200028560326200042f60201b60201c565b905060006200029b601e6200042f60201b60201c565b90506000620002b1600a6200042f60201b60201c565b90506000620002c7600a6200042f60201b60201c565b90506000600160086040518060c001604052806001815260200189815260200188815260200187815260200186815260200185815250908060018154018082558091505090600182039060005260206000209060060201600090919290919091506000820151816000015560208201518160010190805190602001906200035092919062000756565b5060408201518160020155606082015181600301556080820151816004015560a08201518160050155505003905086600a600083815260200190815260200160002060006101000a81548173ffffffffffffffffffffffffffffffffffffffff021916908373ffffffffffffffffffffffffffffffffffffffff16021790555080600b60008973ffffffffffffffffffffffffffffffffffffffff1673ffffffffffffffffffffffffffffffffffffffff16815260200190815260200160002081905550620004268782620004bf60201b60201c565b50505050505050565b6000600560008154809291906001019190505550814233600554604051602001808481526020018373ffffffffffffffffffffffffffffffffffffffff1673ffffffffffffffffffffffffffffffffffffffff1660601b815260140182815260200193505050506040516020818303038152906040528051906020012060001c81620004b757fe5b069050919050565b600073ffffffffffffffffffffffffffffffffffffffff168273ffffffffffffffffffffffffffffffffffffffff161415620004fa57600080fd5b6200050c82826200056c60201b60201c565b808273ffffffffffffffffffffffffffffffffffffffff16600073ffffffffffffffffffffffffffffffffffffffff167fddf252ad1be2c89b69c2b068fc378daa952ba7f163c4a11628f55a4df523b3ef60405160405180910390a45050565b600073ffffffffffffffffffffffffffffffffffffffff166001600083815260200190815260200160002060009054906101000a900473ffffffffffffffffffffffffffffffffffffffff1673ffffffffffffffffffffffffffffffffffffffff1614620005d957600080fd5b816001600083815260200190815260200160002060006101000a81548173ffffffffffffffffffffffffffffffffffffffff021916908373ffffffffffffffffffffffffffffffffffffffff1602179055506200067d600360008473ffffffffffffffffffffffffffffffffffffffff1673ffffffffffffffffffffffffffffffffffffffff168152602001908152602001600020546001620006c460201b60201c565b600360008473ffffffffffffffffffffffffffffffffffffffff1673ffffffffffffffffffffffffffffffffffffffff168152602001908152602001600020819055505050565b600081830190508281101562000742576040517f08c379a00000000000000000000000000000000000000000000000000000000081526004018080602001828103825260088152602001807f736166652061646400000000000000000000000000000000000000000000000081525060200191505060405180910390fd5b92915050565b61107b806200372483390190565b828054600181600116156101000203166002900490600052602060002090601f016020900481019282601f106200079957805160ff1916838001178555620007ca565b82800160010185558215620007ca579182015b82811115620007c9578251825591602001919060010190620007ac565b5b509050620007d99190620007dd565b5090565b6200080291905b80821115620007fe576000816000905550600101620007e4565b5090565b90565b612f0f80620008156000396000f3fe60806040523480156200001157600080fd5b50600436106200016c5760003560e01c80638da5cb5b11620000d5578063bb2880d01162000087578063bb2880d014620008c3578063d05c78da14620008e3578063e6cb90131462000932578063e985e9c51462000981578063edf764a31462000a00578063f21178991462000ad0576200016c565b80638da5cb5b146200066f578063971e80cb14620006bb578063a22cb46514620006c7578063a293d1e8146200071a578063b5931f7c1462000769578063b88d4fde14620007b8576200016c565b80634ddd108a116200012f5780634ddd108a146200037d5780636352211e14620003c9578063672f0c4b146200043a57806370a0823114620004d857806374d2981814620005335780637632e0c71462000614576200016c565b806301ffc9a71462000171578063081812fc14620001d9578063095ea7b3146200024a57806323b872dd146200029b57806342842e0e146200030c575b600080fd5b620001bf600480360360208110156200018957600080fd5b8101908080357bffffffffffffffffffffffffffffffffffffffffffffffffffffffff1916906020019092919050505062000b41565b604051808215151515815260200191505060405180910390f35b6200020860048036036020811015620001f157600080fd5b810190808035906020019092919050505062000ba8565b604051808273ffffffffffffffffffffffffffffffffffffffff1673ffffffffffffffffffffffffffffffffffffffff16815260200191505060405180910390f35b62000299600480360360408110156200026257600080fd5b81019080803573ffffffffffffffffffffffffffffffffffffffff1690602001909291908035906020019092919050505062000bfa565b005b6200030a60048036036060811015620002b357600080fd5b81019080803573ffffffffffffffffffffffffffffffffffffffff169060200190929190803573ffffffffffffffffffffffffffffffffffffffff1690602001909291908035906020019092919050505062000d42565b005b6200037b600480360360608110156200032457600080fd5b81019080803573ffffffffffffffffffffffffffffffffffffffff169060200190929190803573ffffffffffffffffffffffffffffffffffffffff1690602001909291908035906020019092919050505062000e17565b005b6200038762000e39565b604051808273ffffffffffffffffffffffffffffffffffffffff1673ffffffffffffffffffffffffffffffffffffffff16815260200191505060405180910390f35b620003f860048036036020811015620003e157600080fd5b810190808035906020019092919050505062000e5f565b604051808273ffffffffffffffffffffffffffffffffffffffff1673ffffffffffffffffffffffffffffffffffffffff16815260200191505060405180910390f35b6200047f600480360360208110156200045257600080fd5b81019080803573ffffffffffffffffffffffffffffffffffffffff16906020019092919050505062000edc565b6040518080602001828103825283818151815260200191508051906020019060200280838360005b83811015620004c4578082015181840152602081019050620004a7565b505050509050019250505060405180910390f35b6200051d60048036036020811015620004f057600080fd5b81019080803573ffffffffffffffffffffffffffffffffffffffff16906020019092919050505062000fe2565b6040518082815260200191505060405180910390f35b62000612600480360360408110156200054b57600080fd5b81019080803573ffffffffffffffffffffffffffffffffffffffff169060200190929190803590602001906401000000008111156200058957600080fd5b8201836020820111156200059c57600080fd5b80359060200191846001830284011164010000000083111715620005bf57600080fd5b91908080601f016020809104026020016040519081016040528093929190818152602001838380828437600081840152601f19601f82011690508083019250505050505050919291929050505062001065565b005b62000659600480360360208110156200062c57600080fd5b81019080803573ffffffffffffffffffffffffffffffffffffffff16906020019092919050505062001205565b6040518082815260200191505060405180910390f35b620006796200121d565b604051808273ffffffffffffffffffffffffffffffffffffffff1673ffffffffffffffffffffffffffffffffffffffff16815260200191505060405180910390f35b620006c562001243565b005b6200071860048036036040811015620006df57600080fd5b81019080803573ffffffffffffffffffffffffffffffffffffffff169060200190929190803515159060200190929190505050620012b1565b005b62000753600480360360408110156200073257600080fd5b810190808035906020019092919080359060200190929190505050620013ec565b6040518082815260200191505060405180910390f35b620007a2600480360360408110156200078157600080fd5b81019080803590602001909291908035906020019092919050505062001470565b6040518082815260200191505060405180910390f35b620008c160048036036080811015620007d057600080fd5b81019080803573ffffffffffffffffffffffffffffffffffffffff169060200190929190803573ffffffffffffffffffffffffffffffffffffffff16906020019092919080359060200190929190803590602001906401000000008111156200083857600080fd5b8201836020820111156200084b57600080fd5b803590602001918460018302840111640100000000831117156200086e57600080fd5b91908080601f016020809104026020016040519081016040528093929190818152602001838380828437600081840152601f19601f820116905080830192505050505050509192919290505050620014fb565b005b620008cd6200150e565b6040518082815260200191505060405180910390f35b6200091c60048036036040811015620008fb57600080fd5b81019080803590602001909291908035906020019092919050505062001514565b6040518082815260200191505060405180910390f35b6200096b600480360360408110156200094a57600080fd5b810190808035906020019092919080359060200190929190505050620015ad565b6040518082815260200191505060405180910390f35b620009e6600480360360408110156200099957600080fd5b81019080803573ffffffffffffffffffffffffffffffffffffffff169060200190929190803573ffffffffffffffffffffffffffffffffffffffff16906020019092919050505062001631565b604051808215151515815260200191505060405180910390f35b62000a2f6004803603602081101562000a1857600080fd5b8101908080359060200190929190505050620016c5565b6040518087815260200180602001868152602001858152602001848152602001838152602001828103825287818151815260200191508051906020019080838360005b8381101562000a8f57808201518184015260208101905062000a72565b50505050905090810190601f16801562000abd5780820380516001836020036101000a031916815260200191505b5097505050505050505060405180910390f35b62000aff6004803603602081101562000ae857600080fd5b8101908080359060200190929190505050620017ab565b604051808273ffffffffffffffffffffffffffffffffffffffff1673ffffffffffffffffffffffffffffffffffffffff16815260200191505060405180910390f35b6000806000837bffffffffffffffffffffffffffffffffffffffffffffffffffffffff19167bffffffffffffffffffffffffffffffffffffffffffffffffffffffff1916815260200190815260200160002060009054906101000a900460ff169050919050565b600062000bb582620017de565b62000bbf57600080fd5b6002600083815260200190815260200160002060009054906101000a900473ffffffffffffffffffffffffffffffffffffffff169050919050565b600062000c078262000e5f565b90508073ffffffffffffffffffffffffffffffffffffffff168373ffffffffffffffffffffffffffffffffffffffff16141562000c4357600080fd5b8073ffffffffffffffffffffffffffffffffffffffff163373ffffffffffffffffffffffffffffffffffffffff16148062000c86575062000c85813362001631565b5b62000c9057600080fd5b826002600084815260200190815260200160002060006101000a81548173ffffffffffffffffffffffffffffffffffffffff021916908373ffffffffffffffffffffffffffffffffffffffff160217905550818373ffffffffffffffffffffffffffffffffffffffff168273ffffffffffffffffffffffffffffffffffffffff167f8c5be1e5ebec7d5bd14f71427d1e84f3dd0314c0f7b2291e5b200ac8c7c3b92560405160405180910390a4505050565b62000d4e338262001850565b62000d5857600080fd5b600073ffffffffffffffffffffffffffffffffffffffff168273ffffffffffffffffffffffffffffffffffffffff16141562000d9357600080fd5b62000d9f8382620018ed565b62000dab8382620019f0565b62000db7828262001b19565b808273ffffffffffffffffffffffffffffffffffffffff168473ffffffffffffffffffffffffffffffffffffffff167fddf252ad1be2c89b69c2b068fc378daa952ba7f163c4a11628f55a4df523b3ef60405160405180910390a4505050565b62000e3483838360405180602001604052806000815250620014fb565b505050565b600960009054906101000a900473ffffffffffffffffffffffffffffffffffffffff1681565b6000806001600084815260200190815260200160002060009054906101000a900473ffffffffffffffffffffffffffffffffffffffff169050600073ffffffffffffffffffffffffffffffffffffffff168173ffffffffffffffffffffffffffffffffffffffff16141562000ed357600080fd5b80915050919050565b60608060088054905060405190808252806020026020018201604052801562000f145781602001602082028038833980820191505090505b509050600080905060008090505b60088054905081101562000fd7578473ffffffffffffffffffffffffffffffffffffffff16600a600083815260200190815260200160002060009054906101000a900473ffffffffffffffffffffffffffffffffffffffff1673ffffffffffffffffffffffffffffffffffffffff16141562000fc2578083838151811062000fa657fe5b60200260200101818152505062000fbf826001620015ad565b91505b62000fcf816001620015ad565b905062000f22565b508192505050919050565b60008073ffffffffffffffffffffffffffffffffffffffff168273ffffffffffffffffffffffffffffffffffffffff1614156200101e57600080fd5b600360008373ffffffffffffffffffffffffffffffffffffffff1673ffffffffffffffffffffffffffffffffffffffff168152602001908152602001600020549050919050565b600062001073603262001c6b565b9050600062001083601e62001c6b565b9050600062001093600a62001c6b565b90506000620010a3600a62001c6b565b90506000600160086040518060c001604052806001815260200189815260200188815260200187815260200186815260200185815250908060018154018082558091505090600182039060005260206000209060060201600090919290919091506000820151816000015560208201518160010190805190602001906200112c92919062001da2565b5060408201518160020155606082015181600301556080820151816004015560a08201518160050155505003905086600a600083815260200190815260200160002060006101000a81548173ffffffffffffffffffffffffffffffffffffffff021916908373ffffffffffffffffffffffffffffffffffffffff16021790555080600b60008973ffffffffffffffffffffffffffffffffffffffff1673ffffffffffffffffffffffffffffffffffffffff16815260200190815260200160002081905550620011fc878262001cfb565b50505050505050565b600b6020528060005260406000206000915090505481565b600760009054906101000a900473ffffffffffffffffffffffffffffffffffffffff1681565b604051620012519062001e29565b604051809103906000f0801580156200126e573d6000803e3d6000fd5b50600960006101000a81548173ffffffffffffffffffffffffffffffffffffffff021916908373ffffffffffffffffffffffffffffffffffffffff160217905550565b3373ffffffffffffffffffffffffffffffffffffffff168273ffffffffffffffffffffffffffffffffffffffff161415620012eb57600080fd5b80600460003373ffffffffffffffffffffffffffffffffffffffff1673ffffffffffffffffffffffffffffffffffffffff16815260200190815260200160002060008473ffffffffffffffffffffffffffffffffffffffff1673ffffffffffffffffffffffffffffffffffffffff16815260200190815260200160002060006101000a81548160ff0219169083151502179055508173ffffffffffffffffffffffffffffffffffffffff163373ffffffffffffffffffffffffffffffffffffffff167f17307eab39ab6107e8899845ad3d59bd9653f200f220920489ca2b5937696c3183604051808215151515815260200191505060405180910390a35050565b60008282111562001465576040517f08c379a00000000000000000000000000000000000000000000000000000000081526004018080602001828103825260088152602001807f736166652073756200000000000000000000000000000000000000000000000081525060200191505060405180910390fd5b818303905092915050565b6000808211620014e8576040517f08c379a00000000000000000000000000000000000000000000000000000000081526004018080602001828103825260088152602001807f736166652064697600000000000000000000000000000000000000000000000081525060200191505060405180910390fd5b818381620014f257fe5b04905092915050565b6200150884848462000d42565b50505050565b60065481565b600081830290506000831480620015345750818382816200153157fe5b04145b620015a7576040517f08c379a00000000000000000000000000000000000000000000000000000000081526004018080602001828103825260088152602001807f73616665204d756c00000000000000000000000000000000000000000000000081525060200191505060405180910390fd5b92915050565b60008183019050828110156200162b576040517f08c379a00000000000000000000000000000000000000000000000000000000081526004018080602001828103825260088152602001807f736166652061646400000000000000000000000000000000000000000000000081525060200191505060405180910390fd5b92915050565b6000600460008473ffffffffffffffffffffffffffffffffffffffff1673ffffffffffffffffffffffffffffffffffffffff16815260200190815260200160002060008373ffffffffffffffffffffffffffffffffffffffff1673ffffffffffffffffffffffffffffffffffffffff16815260200190815260200160002060009054906101000a900460ff16905092915050565b60088181548110620016d357fe5b9060005260206000209060060201600091509050806000015490806001018054600181600116156101000203166002900480601f016020809104026020016040519081016040528092919081815260200182805460018160011615610100020316600290048015620017895780601f106200175d5761010080835404028352916020019162001789565b820191906000526020600020905b8154815290600101906020018083116200176b57829003601f168201915b5050505050908060020154908060030154908060040154908060050154905086565b600a6020528060005260406000206000915054906101000a900473ffffffffffffffffffffffffffffffffffffffff1681565b6000806001600084815260200190815260200160002060009054906101000a900473ffffffffffffffffffffffffffffffffffffffff169050600073ffffffffffffffffffffffffffffffffffffffff168173ffffffffffffffffffffffffffffffffffffffff161415915050919050565b6000806200185e8362000e5f565b90508073ffffffffffffffffffffffffffffffffffffffff168473ffffffffffffffffffffffffffffffffffffffff161480620018d057508373ffffffffffffffffffffffffffffffffffffffff16620018b88462000ba8565b73ffffffffffffffffffffffffffffffffffffffff16145b80620018e45750620018e3818562001631565b5b91505092915050565b8173ffffffffffffffffffffffffffffffffffffffff166200190f8262000e5f565b73ffffffffffffffffffffffffffffffffffffffff16146200193057600080fd5b600073ffffffffffffffffffffffffffffffffffffffff166002600083815260200190815260200160002060009054906101000a900473ffffffffffffffffffffffffffffffffffffffff1673ffffffffffffffffffffffffffffffffffffffff1614620019ec5760006002600083815260200190815260200160002060006101000a81548173ffffffffffffffffffffffffffffffffffffffff021916908373ffffffffffffffffffffffffffffffffffffffff1602179055505b5050565b8173ffffffffffffffffffffffffffffffffffffffff1662001a128262000e5f565b73ffffffffffffffffffffffffffffffffffffffff161462001a3357600080fd5b62001a7f600360008473ffffffffffffffffffffffffffffffffffffffff1673ffffffffffffffffffffffffffffffffffffffff168152602001908152602001600020546001620013ec565b600360008473ffffffffffffffffffffffffffffffffffffffff1673ffffffffffffffffffffffffffffffffffffffff1681526020019081526020016000208190555060006001600083815260200190815260200160002060006101000a81548173ffffffffffffffffffffffffffffffffffffffff021916908373ffffffffffffffffffffffffffffffffffffffff1602179055505050565b600073ffffffffffffffffffffffffffffffffffffffff166001600083815260200190815260200160002060009054906101000a900473ffffffffffffffffffffffffffffffffffffffff1673ffffffffffffffffffffffffffffffffffffffff161462001b8657600080fd5b816001600083815260200190815260200160002060006101000a81548173ffffffffffffffffffffffffffffffffffffffff021916908373ffffffffffffffffffffffffffffffffffffffff16021790555062001c24600360008473ffffffffffffffffffffffffffffffffffffffff1673ffffffffffffffffffffffffffffffffffffffff168152602001908152602001600020546001620015ad565b600360008473ffffffffffffffffffffffffffffffffffffffff1673ffffffffffffffffffffffffffffffffffffffff168152602001908152602001600020819055505050565b6000600560008154809291906001019190505550814233600554604051602001808481526020018373ffffffffffffffffffffffffffffffffffffffff1673ffffffffffffffffffffffffffffffffffffffff1660601b815260140182815260200193505050506040516020818303038152906040528051906020012060001c8162001cf357fe5b069050919050565b600073ffffffffffffffffffffffffffffffffffffffff168273ffffffffffffffffffffffffffffffffffffffff16141562001d3657600080fd5b62001d42828262001b19565b808273ffffffffffffffffffffffffffffffffffffffff16600073ffffffffffffffffffffffffffffffffffffffff167fddf252ad1be2c89b69c2b068fc378daa952ba7f163c4a11628f55a4df523b3ef60405160405180910390a45050565b828054600181600116156101000203166002900490600052602060002090601f016020900481019282601f1062001de557805160ff191683800117855562001e16565b8280016001018555821562001e16579182015b8281111562001e1557825182559160200191906001019062001df8565b5b50905062001e25919062001e37565b5090565b61107b8062001e6083390190565b62001e5c91905b8082111562001e5857600081600090555060010162001e3e565b5090565b9056fe608060405234801561001057600080fd5b506040518060400160405280600d81526020017f476f6c64436f696e546f6b656e000000000000000000000000000000000000008152506000908051906020019061005c929190610119565b506040518060400160405280600381526020017f4743540000000000000000000000000000000000000000000000000000000000815250600190805190602001906100a8929190610119565b506012600260006101000a81548160ff021916908360ff1602179055506103e8600381905550600354600460003373ffffffffffffffffffffffffffffffffffffffff1673ffffffffffffffffffffffffffffffffffffffff168152602001908152602001600020819055506101be565b828054600181600116156101000203166002900490600052602060002090601f016020900481019282601f1061015a57805160ff1916838001178555610188565b82800160010185558215610188579182015b8281111561018757825182559160200191906001019061016c565b5b5090506101959190610199565b5090565b6101bb91905b808211156101b757600081600090555060010161019f565b5090565b90565b610ead80620001ce6000396000f3fe608060405234801561001057600080fd5b50600436106100ea5760003560e01c806395d89b411161008c578063b5931f7c11610066578063b5931f7c1461044b578063d05c78da14610497578063dd62ed3e146104e3578063e6cb90131461055b576100ea565b806395d89b4114610316578063a293d1e814610399578063a9059cbb146103e5576100ea565b80631a2b0eeb116100c85780631a2b0eeb146101f657806323b872dd1461024e578063313ce567146102d45780633eaaf86b146102f8576100ea565b806306fdde03146100ef578063095ea7b31461017257806318160ddd146101d8575b600080fd5b6100f76105a7565b6040518080602001828103825283818151815260200191508051906020019080838360005b8381101561013757808201518184015260208101905061011c565b50505050905090810190601f1680156101645780820380516001836020036101000a031916815260200191505b509250505060405180910390f35b6101be6004803603604081101561018857600080fd5b81019080803573ffffffffffffffffffffffffffffffffffffffff16906020019092919080359060200190929190505050610645565b604051808215151515815260200191505060405180910390f35b6101e0610737565b6040518082815260200191505060405180910390f35b6102386004803603602081101561020c57600080fd5b81019080803573ffffffffffffffffffffffffffffffffffffffff169060200190929190505050610782565b6040518082815260200191505060405180910390f35b6102ba6004803603606081101561026457600080fd5b81019080803573ffffffffffffffffffffffffffffffffffffffff169060200190929190803573ffffffffffffffffffffffffffffffffffffffff169060200190929190803590602001909291905050506107cb565b604051808215151515815260200191505060405180910390f35b6102dc610955565b604051808260ff1660ff16815260200191505060405180910390f35b610300610968565b6040518082815260200191505060405180910390f35b61031e61096e565b6040518080602001828103825283818151815260200191508051906020019080838360005b8381101561035e578082015181840152602081019050610343565b50505050905090810190601f16801561038b5780820380516001836020036101000a031916815260200191505b509250505060405180910390f35b6103cf600480360360408110156103af57600080fd5b810190808035906020019092919080359060200190929190505050610a0c565b6040518082815260200191505060405180910390f35b610431600480360360408110156103fb57600080fd5b81019080803573ffffffffffffffffffffffffffffffffffffffff16906020019092919080359060200190929190505050610a8f565b604051808215151515815260200191505060405180910390f35b6104816004803603604081101561046157600080fd5b810190808035906020019092919080359060200190929190505050610c4f565b6040518082815260200191505060405180910390f35b6104cd600480360360408110156104ad57600080fd5b810190808035906020019092919080359060200190929190505050610cd8565b6040518082815260200191505060405180910390f35b610545600480360360408110156104f957600080fd5b81019080803573ffffffffffffffffffffffffffffffffffffffff169060200190929190803573ffffffffffffffffffffffffffffffffffffffff169060200190929190505050610d6e565b6040518082815260200191505060405180910390f35b6105916004803603604081101561057157600080fd5b810190808035906020019092919080359060200190929190505050610df5565b6040518082815260200191505060405180910390f35b60008054600181600116156101000203166002900480601f01602080910402602001604051908101604052809291908181526020018280546001816001161561010002031660029004801561063d5780601f106106125761010080835404028352916020019161063d565b820191906000526020600020905b81548152906001019060200180831161062057829003601f168201915b505050505081565b600081600560003373ffffffffffffffffffffffffffffffffffffffff1673ffffffffffffffffffffffffffffffffffffffff16815260200190815260200160002060008573ffffffffffffffffffffffffffffffffffffffff1673ffffffffffffffffffffffffffffffffffffffff168152602001908152602001600020819055508273ffffffffffffffffffffffffffffffffffffffff163373ffffffffffffffffffffffffffffffffffffffff167f8c5be1e5ebec7d5bd14f71427d1e84f3dd0314c0f7b2291e5b200ac8c7c3b925846040518082815260200191505060405180910390a36001905092915050565b6000600460008073ffffffffffffffffffffffffffffffffffffffff1673ffffffffffffffffffffffffffffffffffffffff1681526020019081526020016000205460035403905090565b6000600460008373ffffffffffffffffffffffffffffffffffffffff1673ffffffffffffffffffffffffffffffffffffffff168152602001908152602001600020549050919050565b6000610816600460008673ffffffffffffffffffffffffffffffffffffffff1673ffffffffffffffffffffffffffffffffffffffff1681526020019081526020016000205483610a0c565b600460008673ffffffffffffffffffffffffffffffffffffffff1673ffffffffffffffffffffffffffffffffffffffff168152602001908152602001600020819055506108a2600460008573ffffffffffffffffffffffffffffffffffffffff1673ffffffffffffffffffffffffffffffffffffffff1681526020019081526020016000205483610df5565b600460008573ffffffffffffffffffffffffffffffffffffffff1673ffffffffffffffffffffffffffffffffffffffff168152602001908152602001600020819055508273ffffffffffffffffffffffffffffffffffffffff168473ffffffffffffffffffffffffffffffffffffffff167fddf252ad1be2c89b69c2b068fc378daa952ba7f163c4a11628f55a4df523b3ef846040518082815260200191505060405180910390a3600190509392505050565b600260009054906101000a900460ff1681565b60035481565b60018054600181600116156101000203166002900480601f016020809104026020016040519081016040528092919081815260200182805460018160011615610100020316600290048015610a045780601f106109d957610100808354040283529160200191610a04565b820191906000526020600020905b8154815290600101906020018083116109e757829003601f168201915b505050505081565b600082821115610a84576040517f08c379a00000000000000000000000000000000000000000000000000000000081526004018080602001828103825260088152602001807f736166652073756200000000000000000000000000000000000000000000000081525060200191505060405180910390fd5b818303905092915050565b600081600460003373ffffffffffffffffffffffffffffffffffffffff1673ffffffffffffffffffffffffffffffffffffffff168152602001908152602001600020541015610b46576040517f08c379a000000000000000000000000000000000000000000000000000000000815260040180806020018281038252600e8152602001807f6572726f72207472616e7366657200000000000000000000000000000000000081525060200191505060405180910390fd5b81600460003373ffffffffffffffffffffffffffffffffffffffff1673ffffffffffffffffffffffffffffffffffffffff1681526020019081526020016000206000828254039250508190555081600460008573ffffffffffffffffffffffffffffffffffffffff1673ffffffffffffffffffffffffffffffffffffffff168152602001908152602001600020600082825401925050819055508273ffffffffffffffffffffffffffffffffffffffff163373ffffffffffffffffffffffffffffffffffffffff167fddf252ad1be2c89b69c2b068fc378daa952ba7f163c4a11628f55a4df523b3ef846040518082815260200191505060405180910390a36001905092915050565b6000808211610cc6576040517f08c379a00000000000000000000000000000000000000000000000000000000081526004018080602001828103825260088152602001807f736166652064697600000000000000000000000000000000000000000000000081525060200191505060405180910390fd5b818381610ccf57fe5b04905092915050565b600081830290506000831480610cf6575081838281610cf357fe5b04145b610d68576040517f08c379a00000000000000000000000000000000000000000000000000000000081526004018080602001828103825260088152602001807f73616665204d756c00000000000000000000000000000000000000000000000081525060200191505060405180910390fd5b92915050565b6000600560008473ffffffffffffffffffffffffffffffffffffffff1673ffffffffffffffffffffffffffffffffffffffff16815260200190815260200160002060008373ffffffffffffffffffffffffffffffffffffffff1673ffffffffffffffffffffffffffffffffffffffff16815260200190815260200160002054905092915050565b6000818301905082811015610e72576040517f08c379a00000000000000000000000000000000000000000000000000000000081526004018080602001828103825260088152602001807f736166652061646400000000000000000000000000000000000000000000000081525060200191505060405180910390fd5b9291505056fea265627a7a7231582031f2b051ac7affbb80e11b980b20fa8d3d4326fb2ed01553489e9b46812612e864736f6c63430005100032a265627a7a72315820fca1d69def275bcf743dd80e42b5878aaa5c59b72e9afe4f1f1a4e1734bb923d64736f6c63430005100032608060405234801561001057600080fd5b506040518060400160405280600d81526020017f476f6c64436f696e546f6b656e000000000000000000000000000000000000008152506000908051906020019061005c929190610119565b506040518060400160405280600381526020017f4743540000000000000000000000000000000000000000000000000000000000815250600190805190602001906100a8929190610119565b506012600260006101000a81548160ff021916908360ff1602179055506103e8600381905550600354600460003373ffffffffffffffffffffffffffffffffffffffff1673ffffffffffffffffffffffffffffffffffffffff168152602001908152602001600020819055506101be565b828054600181600116156101000203166002900490600052602060002090601f016020900481019282601f1061015a57805160ff1916838001178555610188565b82800160010185558215610188579182015b8281111561018757825182559160200191906001019061016c565b5b5090506101959190610199565b5090565b6101bb91905b808211156101b757600081600090555060010161019f565b5090565b90565b610ead80620001ce6000396000f3fe608060405234801561001057600080fd5b50600436106100ea5760003560e01c806395d89b411161008c578063b5931f7c11610066578063b5931f7c1461044b578063d05c78da14610497578063dd62ed3e146104e3578063e6cb90131461055b576100ea565b806395d89b4114610316578063a293d1e814610399578063a9059cbb146103e5576100ea565b80631a2b0eeb116100c85780631a2b0eeb146101f657806323b872dd1461024e578063313ce567146102d45780633eaaf86b146102f8576100ea565b806306fdde03146100ef578063095ea7b31461017257806318160ddd146101d8575b600080fd5b6100f76105a7565b6040518080602001828103825283818151815260200191508051906020019080838360005b8381101561013757808201518184015260208101905061011c565b50505050905090810190601f1680156101645780820380516001836020036101000a031916815260200191505b509250505060405180910390f35b6101be6004803603604081101561018857600080fd5b81019080803573ffffffffffffffffffffffffffffffffffffffff16906020019092919080359060200190929190505050610645565b604051808215151515815260200191505060405180910390f35b6101e0610737565b6040518082815260200191505060405180910390f35b6102386004803603602081101561020c57600080fd5b81019080803573ffffffffffffffffffffffffffffffffffffffff169060200190929190505050610782565b6040518082815260200191505060405180910390f35b6102ba6004803603606081101561026457600080fd5b81019080803573ffffffffffffffffffffffffffffffffffffffff169060200190929190803573ffffffffffffffffffffffffffffffffffffffff169060200190929190803590602001909291905050506107cb565b604051808215151515815260200191505060405180910390f35b6102dc610955565b604051808260ff1660ff16815260200191505060405180910390f35b610300610968565b6040518082815260200191505060405180910390f35b61031e61096e565b6040518080602001828103825283818151815260200191508051906020019080838360005b8381101561035e578082015181840152602081019050610343565b50505050905090810190601f16801561038b5780820380516001836020036101000a031916815260200191505b509250505060405180910390f35b6103cf600480360360408110156103af57600080fd5b810190808035906020019092919080359060200190929190505050610a0c565b6040518082815260200191505060405180910390f35b610431600480360360408110156103fb57600080fd5b81019080803573ffffffffffffffffffffffffffffffffffffffff16906020019092919080359060200190929190505050610a8f565b604051808215151515815260200191505060405180910390f35b6104816004803603604081101561046157600080fd5b810190808035906020019092919080359060200190929190505050610c4f565b6040518082815260200191505060405180910390f35b6104cd600480360360408110156104ad57600080fd5b810190808035906020019092919080359060200190929190505050610cd8565b6040518082815260200191505060405180910390f35b610545600480360360408110156104f957600080fd5b81019080803573ffffffffffffffffffffffffffffffffffffffff169060200190929190803573ffffffffffffffffffffffffffffffffffffffff169060200190929190505050610d6e565b6040518082815260200191505060405180910390f35b6105916004803603604081101561057157600080fd5b810190808035906020019092919080359060200190929190505050610df5565b6040518082815260200191505060405180910390f35b60008054600181600116156101000203166002900480601f01602080910402602001604051908101604052809291908181526020018280546001816001161561010002031660029004801561063d5780601f106106125761010080835404028352916020019161063d565b820191906000526020600020905b81548152906001019060200180831161062057829003601f168201915b505050505081565b600081600560003373ffffffffffffffffffffffffffffffffffffffff1673ffffffffffffffffffffffffffffffffffffffff16815260200190815260200160002060008573ffffffffffffffffffffffffffffffffffffffff1673ffffffffffffffffffffffffffffffffffffffff168152602001908152602001600020819055508273ffffffffffffffffffffffffffffffffffffffff163373ffffffffffffffffffffffffffffffffffffffff167f8c5be1e5ebec7d5bd14f71427d1e84f3dd0314c0f7b2291e5b200ac8c7c3b925846040518082815260200191505060405180910390a36001905092915050565b6000600460008073ffffffffffffffffffffffffffffffffffffffff1673ffffffffffffffffffffffffffffffffffffffff1681526020019081526020016000205460035403905090565b6000600460008373ffffffffffffffffffffffffffffffffffffffff1673ffffffffffffffffffffffffffffffffffffffff168152602001908152602001600020549050919050565b6000610816600460008673ffffffffffffffffffffffffffffffffffffffff1673ffffffffffffffffffffffffffffffffffffffff1681526020019081526020016000205483610a0c565b600460008673ffffffffffffffffffffffffffffffffffffffff1673ffffffffffffffffffffffffffffffffffffffff168152602001908152602001600020819055506108a2600460008573ffffffffffffffffffffffffffffffffffffffff1673ffffffffffffffffffffffffffffffffffffffff1681526020019081526020016000205483610df5565b600460008573ffffffffffffffffffffffffffffffffffffffff1673ffffffffffffffffffffffffffffffffffffffff168152602001908152602001600020819055508273ffffffffffffffffffffffffffffffffffffffff168473ffffffffffffffffffffffffffffffffffffffff167fddf252ad1be2c89b69c2b068fc378daa952ba7f163c4a11628f55a4df523b3ef846040518082815260200191505060405180910390a3600190509392505050565b600260009054906101000a900460ff1681565b60035481565b60018054600181600116156101000203166002900480601f016020809104026020016040519081016040528092919081815260200182805460018160011615610100020316600290048015610a045780601f106109d957610100808354040283529160200191610a04565b820191906000526020600020905b8154815290600101906020018083116109e757829003601f168201915b505050505081565b600082821115610a84576040517f08c379a00000000000000000000000000000000000000000000000000000000081526004018080602001828103825260088152602001807f736166652073756200000000000000000000000000000000000000000000000081525060200191505060405180910390fd5b818303905092915050565b600081600460003373ffffffffffffffffffffffffffffffffffffffff1673ffffffffffffffffffffffffffffffffffffffff168152602001908152602001600020541015610b46576040517f08c379a000000000000000000000000000000000000000000000000000000000815260040180806020018281038252600e8152602001807f6572726f72207472616e7366657200000000000000000000000000000000000081525060200191505060405180910390fd5b81600460003373ffffffffffffffffffffffffffffffffffffffff1673ffffffffffffffffffffffffffffffffffffffff1681526020019081526020016000206000828254039250508190555081600460008573ffffffffffffffffffffffffffffffffffffffff1673ffffffffffffffffffffffffffffffffffffffff168152602001908152602001600020600082825401925050819055508273ffffffffffffffffffffffffffffffffffffffff163373ffffffffffffffffffffffffffffffffffffffff167fddf252ad1be2c89b69c2b068fc378daa952ba7f163c4a11628f55a4df523b3ef846040518082815260200191505060405180910390a36001905092915050565b6000808211610cc6576040517f08c379a00000000000000000000000000000000000000000000000000000000081526004018080602001828103825260088152602001807f736166652064697600000000000000000000000000000000000000000000000081525060200191505060405180910390fd5b818381610ccf57fe5b04905092915050565b600081830290506000831480610cf6575081838281610cf357fe5b04145b610d68576040517f08c379a00000000000000000000000000000000000000000000000000000000081526004018080602001828103825260088152602001807f73616665204d756c00000000000000000000000000000000000000000000000081525060200191505060405180910390fd5b92915050565b6000600560008473ffffffffffffffffffffffffffffffffffffffff1673ffffffffffffffffffffffffffffffffffffffff16815260200190815260200160002060008373ffffffffffffffffffffffffffffffffffffffff1673ffffffffffffffffffffffffffffffffffffffff16815260200190815260200160002054905092915050565b6000818301905082811015610e72576040517f08c379a00000000000000000000000000000000000000000000000000000000081526004018080602001828103825260088152602001807f736166652061646400000000000000000000000000000000000000000000000081525060200191505060405180910390fd5b9291505056fea265627a7a7231582031f2b051ac7affbb80e11b980b20fa8d3d4326fb2ed01553489e9b46812612e864736f6c63430005100032",
  "source": "pragma solidity ^0.5.0;\r\n\r\nimport \"./ERC721.sol\";\r\nimport \"./GoldCoinToken.sol\";\r\n\r\ncontract CryptoGame is ERC721 {\r\n    struct Gladiator {\r\n        uint256 level;\r\n        string name;\r\n        uint256 hp;\r\n        uint256 stamina;\r\n        uint256 att;\r\n        uint256 def;\r\n    }\r\n\r\n    uint256 randNonce = 0;\r\n    uint256 public numGladiators = 0;\r\n    address public owner;\r\n    Gladiator[] public gladiators;\r\n    GoldCoinToken public money = new GoldCoinToken();\r\n    mapping(uint256 => address) public gladiatorToOwner;\r\n    mapping(address => uint256) public ownerToGladiator;\r\n\r\n    modifier onlyOwnerOf(uint256 _gladiatorId) {\r\n        require(msg.sender == gladiatorToOwner[_gladiatorId]);\r\n        _;\r\n    }\r\n\r\n    modifier onlyOwner(address _owner) {\r\n        require(owner == _owner);\r\n        _;\r\n    }\r\n\r\n    constructor() public {\r\n        owner = msg.sender;\r\n        recruiteGladiator(owner, \"Ivan\");\r\n    }\r\n\r\n    function setWallet() public {\r\n        money = new GoldCoinToken();\r\n    }\r\n\r\n    function randMod(uint256 _modulus) internal returns (uint256) {\r\n        randNonce++;\r\n        return\r\n            uint256(keccak256(abi.encodePacked(now, msg.sender, randNonce))) %\r\n            _modulus;\r\n    }\r\n\r\n    function recruiteGladiator(address _owner, string memory _name)\r\n        public\r\n    //onlyOwner(_owner)\r\n    {\r\n        uint256 hp = randMod(50);\r\n        uint256 stamina = randMod(30);\r\n        uint256 att = randMod(10);\r\n        uint256 def = randMod(10);\r\n        //gladiators[numGladiators] = Gladiator(1, _name, hp, stamina, att, def);\r\n        uint256 id =\r\n            gladiators.push(Gladiator(1, _name, hp, stamina, att, def)) - 1;\r\n        gladiatorToOwner[id] = _owner;\r\n        ownerToGladiator[_owner] = id;\r\n        _mint(_owner, id);\r\n    }\r\n\r\n    function getGladiatorsByOwner(address _owner)\r\n        public\r\n        view\r\n        returns (uint256[] memory)\r\n    {\r\n        uint256[] memory result = new uint256[](gladiators.length);\r\n        uint256 counter = 0;\r\n        for (uint256 i = 0; i < gladiators.length; i = safeAdd(i, 1)) {\r\n            if (gladiatorToOwner[i] == _owner) {\r\n                result[counter] = i;\r\n                counter = safeAdd(counter, 1);\r\n            }\r\n        }\r\n        return result;\r\n    }\r\n}\r\n",
  "sourcePath": "D:/Homework/Y4S1/Blockchain/Projects/c2/contracts/CryptoGame.sol",
  "compiler": {
    "name": "solc",
    "version": "0.5.16+commit.9c3226ce.Emscripten.clang"
  },
  "schemaVersion": "3.3.3",
  "updatedAt": "2021-01-24T14:45:14.386Z",
  "networkType": "ethereum",
  "devdoc": {
    "methods": {}
  },
  "userdoc": {
    "methods": {}
  }
}